{
  "_format": "hh-sol-artifact-1",
  "contractName": "NumberPlateAuction",
  "sourceName": "contracts/NumberPlateAuction.sol",
  "abi": [
    {
      "inputs": [],
      "stateMutability": "nonpayable",
      "type": "constructor"
    },
    {
      "anonymous": false,
      "inputs": [
        {
          "indexed": true,
          "internalType": "address",
          "name": "owner",
          "type": "address"
        },
        {
          "indexed": true,
          "internalType": "address",
          "name": "approved",
          "type": "address"
        },
        {
          "indexed": true,
          "internalType": "uint256",
          "name": "tokenId",
          "type": "uint256"
        }
      ],
      "name": "Approval",
      "type": "event"
    },
    {
      "anonymous": false,
      "inputs": [
        {
          "indexed": true,
          "internalType": "address",
          "name": "owner",
          "type": "address"
        },
        {
          "indexed": true,
          "internalType": "address",
          "name": "operator",
          "type": "address"
        },
        {
          "indexed": false,
          "internalType": "bool",
          "name": "approved",
          "type": "bool"
        }
      ],
      "name": "ApprovalForAll",
      "type": "event"
    },
    {
      "anonymous": false,
      "inputs": [
        {
          "indexed": true,
          "internalType": "address",
          "name": "from",
          "type": "address"
        },
        {
          "indexed": true,
          "internalType": "address",
          "name": "to",
          "type": "address"
        },
        {
          "indexed": true,
          "internalType": "uint256",
          "name": "tokenId",
          "type": "uint256"
        }
      ],
      "name": "Transfer",
      "type": "event"
    },
    {
      "inputs": [
        {
          "internalType": "address",
          "name": "to",
          "type": "address"
        },
        {
          "internalType": "uint256",
          "name": "tokenId",
          "type": "uint256"
        }
      ],
      "name": "approve",
      "outputs": [],
      "stateMutability": "nonpayable",
      "type": "function"
    },
    {
      "inputs": [
        {
          "internalType": "uint256",
          "name": "",
          "type": "uint256"
        }
      ],
      "name": "auctions",
      "outputs": [
        {
          "internalType": "address payable",
          "name": "creator",
          "type": "address"
        },
        {
          "internalType": "uint256",
          "name": "endTime",
          "type": "uint256"
        },
        {
          "internalType": "uint256",
          "name": "highestBid",
          "type": "uint256"
        },
        {
          "internalType": "address",
          "name": "highestBidder",
          "type": "address"
        },
        {
          "internalType": "bool",
          "name": "ended",
          "type": "bool"
        }
      ],
      "stateMutability": "view",
      "type": "function"
    },
    {
      "inputs": [
        {
          "internalType": "address",
          "name": "owner",
          "type": "address"
        }
      ],
      "name": "balanceOf",
      "outputs": [
        {
          "internalType": "uint256",
          "name": "",
          "type": "uint256"
        }
      ],
      "stateMutability": "view",
      "type": "function"
    },
    {
      "inputs": [
        {
          "internalType": "string",
          "name": "np",
          "type": "string"
        }
      ],
      "name": "bidOnAuction",
      "outputs": [],
      "stateMutability": "payable",
      "type": "function"
    },
    {
      "inputs": [
        {
          "internalType": "string",
          "name": "np",
          "type": "string"
        }
      ],
      "name": "buyNumberPlate",
      "outputs": [],
      "stateMutability": "payable",
      "type": "function"
    },
    {
      "inputs": [
        {
          "internalType": "string",
          "name": "np",
          "type": "string"
        }
      ],
      "name": "createNumberPlate",
      "outputs": [],
      "stateMutability": "payable",
      "type": "function"
    },
    {
      "inputs": [
        {
          "internalType": "string",
          "name": "np",
          "type": "string"
        }
      ],
      "name": "endAuction",
      "outputs": [],
      "stateMutability": "nonpayable",
      "type": "function"
    },
    {
      "inputs": [
        {
          "internalType": "uint256",
          "name": "tokenId",
          "type": "uint256"
        }
      ],
      "name": "getApproved",
      "outputs": [
        {
          "internalType": "address",
          "name": "",
          "type": "address"
        }
      ],
      "stateMutability": "view",
      "type": "function"
    },
    {
      "inputs": [],
      "name": "getAuctionData",
      "outputs": [
        {
          "components": [
            {
              "internalType": "string",
              "name": "numberPlate",
              "type": "string"
            },
            {
              "internalType": "uint256",
              "name": "endtime",
              "type": "uint256"
            },
            {
              "internalType": "uint256",
              "name": "highestBid",
              "type": "uint256"
            }
          ],
          "internalType": "struct NumberPlateAuction.AuctionData[]",
          "name": "",
          "type": "tuple[]"
        }
      ],
      "stateMutability": "view",
      "type": "function"
    },
    {
      "inputs": [],
      "name": "getForSaleData",
      "outputs": [
        {
          "components": [
            {
              "internalType": "string",
              "name": "numberPlate",
              "type": "string"
            },
            {
              "internalType": "uint256",
              "name": "price",
              "type": "uint256"
            }
          ],
          "internalType": "struct NumberPlateAuction.ForSaleData[]",
          "name": "",
          "type": "tuple[]"
        }
      ],
      "stateMutability": "view",
      "type": "function"
    },
    {
      "inputs": [
        {
          "internalType": "address",
          "name": "owner",
          "type": "address"
        },
        {
          "internalType": "address",
          "name": "operator",
          "type": "address"
        }
      ],
      "name": "isApprovedForAll",
      "outputs": [
        {
          "internalType": "bool",
          "name": "",
          "type": "bool"
        }
      ],
      "stateMutability": "view",
      "type": "function"
    },
    {
      "inputs": [],
      "name": "name",
      "outputs": [
        {
          "internalType": "string",
          "name": "",
          "type": "string"
        }
      ],
      "stateMutability": "view",
      "type": "function"
    },
    {
      "inputs": [
        {
          "internalType": "string",
          "name": "",
          "type": "string"
        }
      ],
      "name": "numberPlateToTokenId",
      "outputs": [
        {
          "internalType": "uint256",
          "name": "",
          "type": "uint256"
        }
      ],
      "stateMutability": "view",
      "type": "function"
    },
    {
      "inputs": [
        {
          "internalType": "uint256",
          "name": "",
          "type": "uint256"
        }
      ],
      "name": "numberPlates",
      "outputs": [
        {
          "internalType": "bool",
          "name": "forSale",
          "type": "bool"
        },
        {
          "internalType": "uint256",
          "name": "price",
          "type": "uint256"
        },
        {
          "internalType": "string",
          "name": "destination",
          "type": "string"
        }
      ],
      "stateMutability": "view",
      "type": "function"
    },
    {
      "inputs": [
        {
          "internalType": "uint256",
          "name": "tokenId",
          "type": "uint256"
        }
      ],
      "name": "ownerOf",
      "outputs": [
        {
          "internalType": "address",
          "name": "",
          "type": "address"
        }
      ],
      "stateMutability": "view",
      "type": "function"
    },
    {
      "inputs": [
        {
          "internalType": "string",
          "name": "np",
          "type": "string"
        }
      ],
      "name": "removeFromSale",
      "outputs": [],
      "stateMutability": "nonpayable",
      "type": "function"
    },
    {
      "inputs": [
        {
          "internalType": "address",
          "name": "from",
          "type": "address"
        },
        {
          "internalType": "address",
          "name": "to",
          "type": "address"
        },
        {
          "internalType": "uint256",
          "name": "tokenId",
          "type": "uint256"
        }
      ],
      "name": "safeTransferFrom",
      "outputs": [],
      "stateMutability": "nonpayable",
      "type": "function"
    },
    {
      "inputs": [
        {
          "internalType": "address",
          "name": "from",
          "type": "address"
        },
        {
          "internalType": "address",
          "name": "to",
          "type": "address"
        },
        {
          "internalType": "uint256",
          "name": "tokenId",
          "type": "uint256"
        },
        {
          "internalType": "bytes",
          "name": "data",
          "type": "bytes"
        }
      ],
      "name": "safeTransferFrom",
      "outputs": [],
      "stateMutability": "nonpayable",
      "type": "function"
    },
    {
      "inputs": [
        {
          "internalType": "address",
          "name": "operator",
          "type": "address"
        },
        {
          "internalType": "bool",
          "name": "approved",
          "type": "bool"
        }
      ],
      "name": "setApprovalForAll",
      "outputs": [],
      "stateMutability": "nonpayable",
      "type": "function"
    },
    {
      "inputs": [
        {
          "internalType": "string",
          "name": "np",
          "type": "string"
        },
        {
          "internalType": "string",
          "name": "dest",
          "type": "string"
        }
      ],
      "name": "setDestination",
      "outputs": [],
      "stateMutability": "nonpayable",
      "type": "function"
    },
    {
      "inputs": [
        {
          "internalType": "string",
          "name": "np",
          "type": "string"
        },
        {
          "internalType": "uint256",
          "name": "price",
          "type": "uint256"
        }
      ],
      "name": "setForSale",
      "outputs": [],
      "stateMutability": "nonpayable",
      "type": "function"
    },
    {
      "inputs": [
        {
          "internalType": "bytes4",
          "name": "interfaceId",
          "type": "bytes4"
        }
      ],
      "name": "supportsInterface",
      "outputs": [
        {
          "internalType": "bool",
          "name": "",
          "type": "bool"
        }
      ],
      "stateMutability": "view",
      "type": "function"
    },
    {
      "inputs": [],
      "name": "symbol",
      "outputs": [
        {
          "internalType": "string",
          "name": "",
          "type": "string"
        }
      ],
      "stateMutability": "view",
      "type": "function"
    },
    {
      "inputs": [
        {
          "internalType": "uint256",
          "name": "",
          "type": "uint256"
        }
      ],
      "name": "tokenToNumberPlate",
      "outputs": [
        {
          "internalType": "string",
          "name": "",
          "type": "string"
        }
      ],
      "stateMutability": "view",
      "type": "function"
    },
    {
      "inputs": [
        {
          "internalType": "uint256",
          "name": "tokenId",
          "type": "uint256"
        }
      ],
      "name": "tokenURI",
      "outputs": [
        {
          "internalType": "string",
          "name": "",
          "type": "string"
        }
      ],
      "stateMutability": "view",
      "type": "function"
    },
    {
      "inputs": [
        {
          "internalType": "address",
          "name": "from",
          "type": "address"
        },
        {
          "internalType": "address",
          "name": "to",
          "type": "address"
        },
        {
          "internalType": "uint256",
          "name": "tokenId",
          "type": "uint256"
        }
      ],
      "name": "transferFrom",
      "outputs": [],
      "stateMutability": "nonpayable",
      "type": "function"
    },
    {
      "inputs": [],
      "name": "withdrawBalance",
      "outputs": [],
      "stateMutability": "nonpayable",
      "type": "function"
    }
  ],
  "bytecode": "0x6080604052603c6006553480156200001657600080fd5b506040518060400160405280600c81526020017f4e756d62657220506c61746500000000000000000000000000000000000000008152506040518060400160405280600281526020017f4e5000000000000000000000000000000000000000000000000000000000000081525081600090816200009491906200036a565b508060019081620000a691906200036a565b50505033600760006101000a81548173ffffffffffffffffffffffffffffffffffffffff021916908373ffffffffffffffffffffffffffffffffffffffff16021790555062000451565b600081519050919050565b7f4e487b7100000000000000000000000000000000000000000000000000000000600052604160045260246000fd5b7f4e487b7100000000000000000000000000000000000000000000000000000000600052602260045260246000fd5b600060028204905060018216806200017257607f821691505b6020821081036200018857620001876200012a565b5b50919050565b60008190508160005260206000209050919050565b60006020601f8301049050919050565b600082821b905092915050565b600060088302620001f27fffffffffffffffffffffffffffffffffffffffffffffffffffffffffffffffff82620001b3565b620001fe8683620001b3565b95508019841693508086168417925050509392505050565b6000819050919050565b6000819050919050565b60006200024b620002456200023f8462000216565b62000220565b62000216565b9050919050565b6000819050919050565b62000267836200022a565b6200027f620002768262000252565b848454620001c0565b825550505050565b600090565b6200029662000287565b620002a38184846200025c565b505050565b5b81811015620002cb57620002bf6000826200028c565b600181019050620002a9565b5050565b601f8211156200031a57620002e4816200018e565b620002ef84620001a3565b81016020851015620002ff578190505b620003176200030e85620001a3565b830182620002a8565b50505b505050565b600082821c905092915050565b60006200033f600019846008026200031f565b1980831691505092915050565b60006200035a83836200032c565b9150826002028217905092915050565b6200037582620000f0565b67ffffffffffffffff811115620003915762000390620000fb565b5b6200039d825462000159565b620003aa828285620002cf565b600060209050601f831160018114620003e25760008415620003cd578287015190505b620003d985826200034c565b86555062000449565b601f198416620003f2866200018e565b60005b828110156200041c57848901518255600182019150602085019450602081019050620003f5565b868310156200043c578489015162000438601f8916826200032c565b8355505b6001600288020188555050505b505050505050565b6152af80620004616000396000f3fe60806040526004361061019c5760003560e01c80636b4a17f0116100ec578063b88d4fde1161008a578063c9c94a1a11610064578063c9c94a1a146105d0578063ce2ba9bf146105ec578063e985e9c514610615578063f46bdf3e146106525761019c565b8063b88d4fde14610541578063c6a100911461056a578063c87b56dd146105935761019c565b806395d89b41116100c657806395d89b4114610487578063a22cb465146104b2578063a90f832d146104db578063aa899248146105185761019c565b80636b4a17f0146103f657806370a082311461041f578063786c22311461045c5761019c565b806323b872dd11610159578063571a26a011610133578063571a26a0146103365780635fd8c710146103775780636352211e1461038e5780636a67acc5146103cb5761019c565b806323b872dd146102c857806332f51dc3146102f157806342842e0e1461030d5761019c565b806301ffc9a7146101a157806306fdde03146101de578063071076b214610209578063081812fc14610225578063095ea7b314610262578063150d8ff71461028b575b600080fd5b3480156101ad57600080fd5b506101c860048036038101906101c39190613302565b610691565b6040516101d5919061334a565b60405180910390f35b3480156101ea57600080fd5b506101f3610773565b60405161020091906133f5565b60405180910390f35b610223600480360381019061021e919061354c565b610805565b005b34801561023157600080fd5b5061024c600480360381019061024791906135cb565b610b41565b6040516102599190613639565b60405180910390f35b34801561026e57600080fd5b5061028960048036038101906102849190613680565b610b87565b005b34801561029757600080fd5b506102b260048036038101906102ad91906135cb565b610c9e565b6040516102bf91906133f5565b60405180910390f35b3480156102d457600080fd5b506102ef60048036038101906102ea91906136c0565b610d3e565b005b61030b6004803603810190610306919061354c565b610d9e565b005b34801561031957600080fd5b50610334600480360381019061032f91906136c0565b6110d8565b005b34801561034257600080fd5b5061035d600480360381019061035891906135cb565b6110f8565b60405161036e959493929190613743565b60405180910390f35b34801561038357600080fd5b5061038c61117b565b005b34801561039a57600080fd5b506103b560048036038101906103b091906135cb565b61125e565b6040516103c29190613639565b60405180910390f35b3480156103d757600080fd5b506103e06112e4565b6040516103ed9190613901565b60405180910390f35b34801561040257600080fd5b5061041d60048036038101906104189190613923565b6114d2565b005b34801561042b57600080fd5b506104466004803603810190610441919061397f565b6115b6565b60405161045391906139ac565b60405180910390f35b34801561046857600080fd5b5061047161166d565b60405161047e9190613ac6565b60405180910390f35b34801561049357600080fd5b5061049c61182e565b6040516104a991906133f5565b60405180910390f35b3480156104be57600080fd5b506104d960048036038101906104d49190613b14565b6118c0565b005b3480156104e757600080fd5b5061050260048036038101906104fd919061354c565b6118d6565b60405161050f91906139ac565b60405180910390f35b34801561052457600080fd5b5061053f600480360381019061053a919061354c565b611904565b005b34801561054d57600080fd5b5061056860048036038101906105639190613bf5565b611acc565b005b34801561057657600080fd5b50610591600480360381019061058c9190613cd8565b611b2e565b005b34801561059f57600080fd5b506105ba60048036038101906105b591906135cb565b611bcc565b6040516105c791906133f5565b60405180910390f35b6105ea60048036038101906105e5919061354c565b611c34565b005b3480156105f857600080fd5b50610613600480360381019061060e919061354c565b611e40565b005b34801561062157600080fd5b5061063c60048036038101906106379190613d54565b6121e9565b604051610649919061334a565b60405180910390f35b34801561065e57600080fd5b50610679600480360381019061067491906135cb565b61227d565b60405161068893929190613d94565b60405180910390f35b60007f80ac58cd000000000000000000000000000000000000000000000000000000007bffffffffffffffffffffffffffffffffffffffffffffffffffffffff1916827bffffffffffffffffffffffffffffffffffffffffffffffffffffffff1916148061075c57507f5b5e139f000000000000000000000000000000000000000000000000000000007bffffffffffffffffffffffffffffffffffffffffffffffffffffffff1916827bffffffffffffffffffffffffffffffffffffffffffffffffffffffff1916145b8061076c575061076b8261233c565b5b9050919050565b60606000805461078290613e01565b80601f01602080910402602001604051908101604052809291908181526020018280546107ae90613e01565b80156107fb5780601f106107d0576101008083540402835291602001916107fb565b820191906000526020600020905b8154815290600101906020018083116107de57829003601f168201915b5050505050905090565b60006008826040516108179190613e6e565b90815260200160405180910390205490506000600a600083815260200190815260200160002090508060000160009054906101000a900460ff16610890576040517f08c379a000000000000000000000000000000000000000000000000000000000815260040161088790613ed1565b60405180910390fd5b80600101543410156108d7576040517f08c379a00000000000000000000000000000000000000000000000000000000081526004016108ce90613f3d565b60405180910390fd5b60006108e28361125e565b90506108ff813385604051806020016040528060008152506123a6565b60008260000160006101000a81548160ff02191690831515021790555060005b600d80549050811015610a3e578460405160200161093d9190613e6e565b60405160208183030381529060405280519060200120600d828154811061096757610966613f5d565b5b906000526020600020016040516020016109819190614024565b6040516020818303038152906040528051906020012003610a2b57600d6001600d805490506109b0919061406a565b815481106109c1576109c0613f5d565b5b90600052602060002001600d82815481106109df576109de613f5d565b5b9060005260206000200190816109f59190614260565b50600d805480610a0857610a07614348565b5b600190038181906000526020600020016000610a2491906131fe565b9055610a3e565b8080610a3690614377565b91505061091f565b506000606460018460010154610a5491906143bf565b610a5e9190614430565b90506000818460010154610a72919061406a565b9050610a9d818473ffffffffffffffffffffffffffffffffffffffff1661240290919063ffffffff16565b6000600760009054906101000a900473ffffffffffffffffffffffffffffffffffffffff169050610aed838273ffffffffffffffffffffffffffffffffffffffff1661240290919063ffffffff16565b8460010154341115610b38576000856001015434610b0b919061406a565b9050610b36813373ffffffffffffffffffffffffffffffffffffffff1661240290919063ffffffff16565b505b50505050505050565b6000610b4c826124f6565b6004600083815260200190815260200160002060009054906101000a900473ffffffffffffffffffffffffffffffffffffffff169050919050565b6000610b928261125e565b90508073ffffffffffffffffffffffffffffffffffffffff168373ffffffffffffffffffffffffffffffffffffffff1603610c02576040517f08c379a0000000000000000000000000000000000000000000000000000000008152600401610bf9906144d3565b60405180910390fd5b8073ffffffffffffffffffffffffffffffffffffffff16610c21612541565b73ffffffffffffffffffffffffffffffffffffffff161480610c505750610c4f81610c4a612541565b6121e9565b5b610c8f576040517f08c379a0000000000000000000000000000000000000000000000000000000008152600401610c8690614565565b60405180910390fd5b610c998383612549565b505050565b600b6020528060005260406000206000915090508054610cbd90613e01565b80601f0160208091040260200160405190810160405280929190818152602001828054610ce990613e01565b8015610d365780601f10610d0b57610100808354040283529160200191610d36565b820191906000526020600020905b815481529060010190602001808311610d1957829003601f168201915b505050505081565b610d4f610d49612541565b82612602565b610d8e576040517f08c379a0000000000000000000000000000000000000000000000000000000008152600401610d85906145f7565b60405180910390fd5b610d99838383612697565b505050565b600081604051602001610db19190613e6e565b6040516020818303038152906040528051906020012060001c9050610dd581612990565b15610e15576040517f08c379a0000000000000000000000000000000000000000000000000000000008152600401610e0c90614663565b60405180910390fd5b66038d7ea4c68000341015610e5f576040517f08c379a0000000000000000000000000000000000000000000000000000000008152600401610e56906146cf565b60405180910390fd5b610e6933826129d1565b81600b60008381526020019081526020016000209081610e8991906146ef565b5080600883604051610e9b9190613e6e565b908152602001604051809103902081905550600060065442610ebd91906147c1565b90506040518060a001604052803373ffffffffffffffffffffffffffffffffffffffff16815260200182815260200166038d7ea4c680008152602001600073ffffffffffffffffffffffffffffffffffffffff168152602001600015158152506009600084815260200190815260200160002060008201518160000160006101000a81548173ffffffffffffffffffffffffffffffffffffffff021916908373ffffffffffffffffffffffffffffffffffffffff160217905550602082015181600101556040820151816002015560608201518160030160006101000a81548173ffffffffffffffffffffffffffffffffffffffff021916908373ffffffffffffffffffffffffffffffffffffffff16021790555060808201518160030160146101000a81548160ff021916908315150217905550905050600c8390806001815401808255809150506001900390600052602060002001600090919091909150908161102991906146ef565b5066038d7ea4c6800034111561107b57600066038d7ea4c680003461104e919061406a565b9050611079813373ffffffffffffffffffffffffffffffffffffffff1661240290919063ffffffff16565b505b6000600760009054906101000a900473ffffffffffffffffffffffffffffffffffffffff1690506110d266038d7ea4c680008273ffffffffffffffffffffffffffffffffffffffff1661240290919063ffffffff16565b50505050565b6110f383838360405180602001604052806000815250611acc565b505050565b60096020528060005260406000206000915090508060000160009054906101000a900473ffffffffffffffffffffffffffffffffffffffff16908060010154908060020154908060030160009054906101000a900473ffffffffffffffffffffffffffffffffffffffff16908060030160149054906101000a900460ff16905085565b600760009054906101000a900473ffffffffffffffffffffffffffffffffffffffff1673ffffffffffffffffffffffffffffffffffffffff163373ffffffffffffffffffffffffffffffffffffffff161461120b576040517f08c379a000000000000000000000000000000000000000000000000000000000815260040161120290614867565b60405180910390fd5b6000600760009054906101000a900473ffffffffffffffffffffffffffffffffffffffff16905061125b478273ffffffffffffffffffffffffffffffffffffffff1661240290919063ffffffff16565b50565b60008061126a836129ef565b9050600073ffffffffffffffffffffffffffffffffffffffff168173ffffffffffffffffffffffffffffffffffffffff16036112db576040517f08c379a00000000000000000000000000000000000000000000000000000000081526004016112d2906148d3565b60405180910390fd5b80915050919050565b60606000600c80549050905060008167ffffffffffffffff81111561130c5761130b613421565b5b60405190808252806020026020018201604052801561134557816020015b61133261323e565b81526020019060019003908161132a5790505b50905060005b828110156114c95760006008600c838154811061136b5761136a613f5d565b5b906000526020600020016040516113829190614024565b90815260200160405180910390205490506000600960008381526020019081526020016000206002015490506000600960008481526020019081526020016000206001015490506040518060600160405280600c86815481106113e8576113e7613f5d565b5b9060005260206000200180546113fd90613e01565b80601f016020809104026020016040519081016040528092919081815260200182805461142990613e01565b80156114765780601f1061144b57610100808354040283529160200191611476565b820191906000526020600020905b81548152906001019060200180831161145957829003601f168201915b50505050508152602001428361148c919061406a565b8152602001838152508585815181106114a8576114a7613f5d565b5b602002602001018190525050505080806114c190614377565b91505061134b565b50809250505090565b60006008836040516114e49190613e6e565b90815260200160405180910390205490506114ff3382612602565b61153e576040517f08c379a000000000000000000000000000000000000000000000000000000000815260040161153590614965565b60405180910390fd5b6000600a6000838152602001908152602001600020905060018160000160006101000a81548160ff021916908315150217905550828160010181905550600d849080600181540180825580915050600190039060005260206000200160009091909190915090816115af91906146ef565b5050505050565b60008073ffffffffffffffffffffffffffffffffffffffff168273ffffffffffffffffffffffffffffffffffffffff1603611626576040517f08c379a000000000000000000000000000000000000000000000000000000000815260040161161d906149f7565b60405180910390fd5b600360008373ffffffffffffffffffffffffffffffffffffffff1673ffffffffffffffffffffffffffffffffffffffff168152602001908152602001600020549050919050565b60606000600d80549050905060008167ffffffffffffffff81111561169557611694613421565b5b6040519080825280602002602001820160405280156116ce57816020015b6116bb61325f565b8152602001906001900390816116b35790505b50905060005b828110156118255760006008600d83815481106116f4576116f3613f5d565b5b9060005260206000200160405161170b9190614024565b90815260200160405180910390205490506000600a60008381526020019081526020016000206001015490506040518060400160405280600d858154811061175657611755613f5d565b5b90600052602060002001805461176b90613e01565b80601f016020809104026020016040519081016040528092919081815260200182805461179790613e01565b80156117e45780601f106117b9576101008083540402835291602001916117e4565b820191906000526020600020905b8154815290600101906020018083116117c757829003601f168201915b505050505081526020018281525084848151811061180557611804613f5d565b5b60200260200101819052505050808061181d90614377565b9150506116d4565b50809250505090565b60606001805461183d90613e01565b80601f016020809104026020016040519081016040528092919081815260200182805461186990613e01565b80156118b65780601f1061188b576101008083540402835291602001916118b6565b820191906000526020600020905b81548152906001019060200180831161189957829003601f168201915b5050505050905090565b6118d26118cb612541565b8383612a2c565b5050565b6008818051602081018201805184825260208301602085012081835280955050505050506000915090505481565b60006008826040516119169190613e6e565b90815260200160405180910390205490506119313382612602565b611970576040517f08c379a000000000000000000000000000000000000000000000000000000000815260040161196790614965565b60405180910390fd5b6000600a6000838152602001908152602001600020905060008160000160006101000a81548160ff02191690831515021790555060005b600d80549050811015611ac657836040516020016119c59190613e6e565b60405160208183030381529060405280519060200120600d82815481106119ef576119ee613f5d565b5b90600052602060002001604051602001611a099190614024565b6040516020818303038152906040528051906020012003611ab357600d6001600d80549050611a38919061406a565b81548110611a4957611a48613f5d565b5b90600052602060002001600d8281548110611a6757611a66613f5d565b5b906000526020600020019081611a7d9190614260565b50600d805480611a9057611a8f614348565b5b600190038181906000526020600020016000611aac91906131fe565b9055611ac6565b8080611abe90614377565b9150506119a7565b50505050565b611add611ad7612541565b83612602565b611b1c576040517f08c379a0000000000000000000000000000000000000000000000000000000008152600401611b13906145f7565b60405180910390fd5b611b28848484846123a6565b50505050565b6000600884604051611b409190613e6e565b9081526020016040518091039020549050611b5b3382612602565b611b9a576040517f08c379a0000000000000000000000000000000000000000000000000000000008152600401611b9190614965565b60405180910390fd5b6000600a600083815260200190815260200160002090508383826002019182611bc4929190614a22565b505050505050565b6060611bd7826124f6565b6000611be1612b98565b90506000815111611c015760405180602001604052806000815250611c2c565b80611c0b84612baf565b604051602001611c1c929190614af2565b6040516020818303038152906040525b915050919050565b6000600882604051611c469190613e6e565b908152602001604051809103902054905060006009600083815260200190815260200160002090508060010154421115611cb5576040517f08c379a0000000000000000000000000000000000000000000000000000000008152600401611cac90614b62565b60405180910390fd5b66038d7ea4c68000341015611cff576040517f08c379a0000000000000000000000000000000000000000000000000000000008152600401611cf690614bce565b60405180910390fd5b80600201543411611d45576040517f08c379a0000000000000000000000000000000000000000000000000000000008152600401611d3c90614c60565b60405180910390fd5b600073ffffffffffffffffffffffffffffffffffffffff168160030160009054906101000a900473ffffffffffffffffffffffffffffffffffffffff1673ffffffffffffffffffffffffffffffffffffffff1614611def57611dee81600201548260030160009054906101000a900473ffffffffffffffffffffffffffffffffffffffff1673ffffffffffffffffffffffffffffffffffffffff1661240290919063ffffffff16565b5b348160020181905550338160030160006101000a81548173ffffffffffffffffffffffffffffffffffffffff021916908373ffffffffffffffffffffffffffffffffffffffff160217905550505050565b6000600882604051611e529190613e6e565b908152602001604051809103902054905060006009600083815260200190815260200160002090508060010154421015611ec1576040517f08c379a0000000000000000000000000000000000000000000000000000000008152600401611eb890614ccc565b60405180910390fd5b8060030160149054906101000a900460ff1615611f13576040517f08c379a0000000000000000000000000000000000000000000000000000000008152600401611f0a90614d38565b60405180910390fd5b60018160030160146101000a81548160ff021916908315150217905550600073ffffffffffffffffffffffffffffffffffffffff168160030160009054906101000a900473ffffffffffffffffffffffffffffffffffffffff1673ffffffffffffffffffffffffffffffffffffffff16146120c1576000606460018360020154611f9d91906143bf565b611fa79190614430565b90506000818360020154611fbb919061406a565b905061200a818460000160009054906101000a900473ffffffffffffffffffffffffffffffffffffffff1673ffffffffffffffffffffffffffffffffffffffff1661240290919063ffffffff16565b6000600760009054906101000a900473ffffffffffffffffffffffffffffffffffffffff16905061205a838273ffffffffffffffffffffffffffffffffffffffff1661240290919063ffffffff16565b6120bd8460000160009054906101000a900473ffffffffffffffffffffffffffffffffffffffff168560030160009054906101000a900473ffffffffffffffffffffffffffffffffffffffff1687604051806020016040528060008152506123a6565b5050505b60005b600c805490508110156121e357836040516020016120e29190613e6e565b60405160208183030381529060405280519060200120600c828154811061210c5761210b613f5d565b5b906000526020600020016040516020016121269190614024565b60405160208183030381529060405280519060200120036121d057600c6001600c80549050612155919061406a565b8154811061216657612165613f5d565b5b90600052602060002001600c828154811061218457612183613f5d565b5b90600052602060002001908161219a9190614260565b50600c8054806121ad576121ac614348565b5b6001900381819060005260206000200160006121c991906131fe565b90556121e3565b80806121db90614377565b9150506120c4565b50505050565b6000600560008473ffffffffffffffffffffffffffffffffffffffff1673ffffffffffffffffffffffffffffffffffffffff16815260200190815260200160002060008373ffffffffffffffffffffffffffffffffffffffff1673ffffffffffffffffffffffffffffffffffffffff16815260200190815260200160002060009054906101000a900460ff16905092915050565b600a6020528060005260406000206000915090508060000160009054906101000a900460ff16908060010154908060020180546122b990613e01565b80601f01602080910402602001604051908101604052809291908181526020018280546122e590613e01565b80156123325780601f1061230757610100808354040283529160200191612332565b820191906000526020600020905b81548152906001019060200180831161231557829003601f168201915b5050505050905083565b60007f01ffc9a7000000000000000000000000000000000000000000000000000000007bffffffffffffffffffffffffffffffffffffffffffffffffffffffff1916827bffffffffffffffffffffffffffffffffffffffffffffffffffffffff1916149050919050565b6123b1848484612697565b6123bd84848484612c7d565b6123fc576040517f08c379a00000000000000000000000000000000000000000000000000000000081526004016123f390614dca565b60405180910390fd5b50505050565b80471015612445576040517f08c379a000000000000000000000000000000000000000000000000000000000815260040161243c90614e36565b60405180910390fd5b60008273ffffffffffffffffffffffffffffffffffffffff168260405161246b90614e87565b60006040518083038185875af1925050503d80600081146124a8576040519150601f19603f3d011682016040523d82523d6000602084013e6124ad565b606091505b50509050806124f1576040517f08c379a00000000000000000000000000000000000000000000000000000000081526004016124e890614f0e565b60405180910390fd5b505050565b6124ff81612990565b61253e576040517f08c379a0000000000000000000000000000000000000000000000000000000008152600401612535906148d3565b60405180910390fd5b50565b600033905090565b816004600083815260200190815260200160002060006101000a81548173ffffffffffffffffffffffffffffffffffffffff021916908373ffffffffffffffffffffffffffffffffffffffff160217905550808273ffffffffffffffffffffffffffffffffffffffff166125bc8361125e565b73ffffffffffffffffffffffffffffffffffffffff167f8c5be1e5ebec7d5bd14f71427d1e84f3dd0314c0f7b2291e5b200ac8c7c3b92560405160405180910390a45050565b60008061260e8361125e565b90508073ffffffffffffffffffffffffffffffffffffffff168473ffffffffffffffffffffffffffffffffffffffff161480612650575061264f81856121e9565b5b8061268e57508373ffffffffffffffffffffffffffffffffffffffff1661267684610b41565b73ffffffffffffffffffffffffffffffffffffffff16145b91505092915050565b8273ffffffffffffffffffffffffffffffffffffffff166126b78261125e565b73ffffffffffffffffffffffffffffffffffffffff161461270d576040517f08c379a000000000000000000000000000000000000000000000000000000000815260040161270490614fa0565b60405180910390fd5b600073ffffffffffffffffffffffffffffffffffffffff168273ffffffffffffffffffffffffffffffffffffffff160361277c576040517f08c379a000000000000000000000000000000000000000000000000000000000815260040161277390615032565b60405180910390fd5b6127898383836001612e04565b8273ffffffffffffffffffffffffffffffffffffffff166127a98261125e565b73ffffffffffffffffffffffffffffffffffffffff16146127ff576040517f08c379a00000000000000000000000000000000000000000000000000000000081526004016127f690614fa0565b60405180910390fd5b6004600082815260200190815260200160002060006101000a81549073ffffffffffffffffffffffffffffffffffffffff02191690556001600360008573ffffffffffffffffffffffffffffffffffffffff1673ffffffffffffffffffffffffffffffffffffffff168152602001908152602001600020600082825403925050819055506001600360008473ffffffffffffffffffffffffffffffffffffffff1673ffffffffffffffffffffffffffffffffffffffff16815260200190815260200160002060008282540192505081905550816002600083815260200190815260200160002060006101000a81548173ffffffffffffffffffffffffffffffffffffffff021916908373ffffffffffffffffffffffffffffffffffffffff160217905550808273ffffffffffffffffffffffffffffffffffffffff168473ffffffffffffffffffffffffffffffffffffffff167fddf252ad1be2c89b69c2b068fc378daa952ba7f163c4a11628f55a4df523b3ef60405160405180910390a461298b8383836001612e0a565b505050565b60008073ffffffffffffffffffffffffffffffffffffffff166129b2836129ef565b73ffffffffffffffffffffffffffffffffffffffff1614159050919050565b6129eb828260405180602001604052806000815250612e10565b5050565b60006002600083815260200190815260200160002060009054906101000a900473ffffffffffffffffffffffffffffffffffffffff169050919050565b8173ffffffffffffffffffffffffffffffffffffffff168373ffffffffffffffffffffffffffffffffffffffff1603612a9a576040517f08c379a0000000000000000000000000000000000000000000000000000000008152600401612a919061509e565b60405180910390fd5b80600560008573ffffffffffffffffffffffffffffffffffffffff1673ffffffffffffffffffffffffffffffffffffffff16815260200190815260200160002060008473ffffffffffffffffffffffffffffffffffffffff1673ffffffffffffffffffffffffffffffffffffffff16815260200190815260200160002060006101000a81548160ff0219169083151502179055508173ffffffffffffffffffffffffffffffffffffffff168373ffffffffffffffffffffffffffffffffffffffff167f17307eab39ab6107e8899845ad3d59bd9653f200f220920489ca2b5937696c3183604051612b8b919061334a565b60405180910390a3505050565b606060405180602001604052806000815250905090565b606060006001612bbe84612e6b565b01905060008167ffffffffffffffff811115612bdd57612bdc613421565b5b6040519080825280601f01601f191660200182016040528015612c0f5781602001600182028036833780820191505090505b509050600082602001820190505b600115612c72578080600190039150507f3031323334353637383961626364656600000000000000000000000000000000600a86061a8153600a8581612c6657612c65614401565b5b04945060008503612c1d575b819350505050919050565b6000612c9e8473ffffffffffffffffffffffffffffffffffffffff16612fbe565b15612df7578373ffffffffffffffffffffffffffffffffffffffff1663150b7a02612cc7612541565b8786866040518563ffffffff1660e01b8152600401612ce99493929190615113565b6020604051808303816000875af1925050508015612d2557506040513d601f19601f82011682018060405250810190612d229190615174565b60015b612da7573d8060008114612d55576040519150601f19603f3d011682016040523d82523d6000602084013e612d5a565b606091505b506000815103612d9f576040517f08c379a0000000000000000000000000000000000000000000000000000000008152600401612d9690614dca565b60405180910390fd5b805181602001fd5b63150b7a0260e01b7bffffffffffffffffffffffffffffffffffffffffffffffffffffffff1916817bffffffffffffffffffffffffffffffffffffffffffffffffffffffff191614915050612dfc565b600190505b949350505050565b50505050565b50505050565b612e1a8383612fe1565b612e276000848484612c7d565b612e66576040517f08c379a0000000000000000000000000000000000000000000000000000000008152600401612e5d90614dca565b60405180910390fd5b505050565b600080600090507a184f03e93ff9f4daa797ed6e38ed64bf6a1f0100000000000000008310612ec9577a184f03e93ff9f4daa797ed6e38ed64bf6a1f0100000000000000008381612ebf57612ebe614401565b5b0492506040810190505b6d04ee2d6d415b85acef81000000008310612f06576d04ee2d6d415b85acef81000000008381612efc57612efb614401565b5b0492506020810190505b662386f26fc100008310612f3557662386f26fc100008381612f2b57612f2a614401565b5b0492506010810190505b6305f5e1008310612f5e576305f5e1008381612f5457612f53614401565b5b0492506008810190505b6127108310612f83576127108381612f7957612f78614401565b5b0492506004810190505b60648310612fa65760648381612f9c57612f9b614401565b5b0492506002810190505b600a8310612fb5576001810190505b80915050919050565b6000808273ffffffffffffffffffffffffffffffffffffffff163b119050919050565b600073ffffffffffffffffffffffffffffffffffffffff168273ffffffffffffffffffffffffffffffffffffffff1603613050576040517f08c379a0000000000000000000000000000000000000000000000000000000008152600401613047906151ed565b60405180910390fd5b61305981612990565b15613099576040517f08c379a000000000000000000000000000000000000000000000000000000000815260040161309090615259565b60405180910390fd5b6130a7600083836001612e04565b6130b081612990565b156130f0576040517f08c379a00000000000000000000000000000000000000000000000000000000081526004016130e790615259565b60405180910390fd5b6001600360008473ffffffffffffffffffffffffffffffffffffffff1673ffffffffffffffffffffffffffffffffffffffff16815260200190815260200160002060008282540192505081905550816002600083815260200190815260200160002060006101000a81548173ffffffffffffffffffffffffffffffffffffffff021916908373ffffffffffffffffffffffffffffffffffffffff160217905550808273ffffffffffffffffffffffffffffffffffffffff16600073ffffffffffffffffffffffffffffffffffffffff167fddf252ad1be2c89b69c2b068fc378daa952ba7f163c4a11628f55a4df523b3ef60405160405180910390a46131fa600083836001612e0a565b5050565b50805461320a90613e01565b6000825580601f1061321c575061323b565b601f01602090049060005260206000209081019061323a9190613279565b5b50565b60405180606001604052806060815260200160008152602001600081525090565b604051806040016040528060608152602001600081525090565b5b8082111561329257600081600090555060010161327a565b5090565b6000604051905090565b600080fd5b600080fd5b60007fffffffff0000000000000000000000000000000000000000000000000000000082169050919050565b6132df816132aa565b81146132ea57600080fd5b50565b6000813590506132fc816132d6565b92915050565b600060208284031215613318576133176132a0565b5b6000613326848285016132ed565b91505092915050565b60008115159050919050565b6133448161332f565b82525050565b600060208201905061335f600083018461333b565b92915050565b600081519050919050565b600082825260208201905092915050565b60005b8381101561339f578082015181840152602081019050613384565b60008484015250505050565b6000601f19601f8301169050919050565b60006133c782613365565b6133d18185613370565b93506133e1818560208601613381565b6133ea816133ab565b840191505092915050565b6000602082019050818103600083015261340f81846133bc565b905092915050565b600080fd5b600080fd5b7f4e487b7100000000000000000000000000000000000000000000000000000000600052604160045260246000fd5b613459826133ab565b810181811067ffffffffffffffff8211171561347857613477613421565b5b80604052505050565b600061348b613296565b90506134978282613450565b919050565b600067ffffffffffffffff8211156134b7576134b6613421565b5b6134c0826133ab565b9050602081019050919050565b82818337600083830152505050565b60006134ef6134ea8461349c565b613481565b90508281526020810184848401111561350b5761350a61341c565b5b6135168482856134cd565b509392505050565b600082601f83011261353357613532613417565b5b81356135438482602086016134dc565b91505092915050565b600060208284031215613562576135616132a0565b5b600082013567ffffffffffffffff8111156135805761357f6132a5565b5b61358c8482850161351e565b91505092915050565b6000819050919050565b6135a881613595565b81146135b357600080fd5b50565b6000813590506135c58161359f565b92915050565b6000602082840312156135e1576135e06132a0565b5b60006135ef848285016135b6565b91505092915050565b600073ffffffffffffffffffffffffffffffffffffffff82169050919050565b6000613623826135f8565b9050919050565b61363381613618565b82525050565b600060208201905061364e600083018461362a565b92915050565b61365d81613618565b811461366857600080fd5b50565b60008135905061367a81613654565b92915050565b60008060408385031215613697576136966132a0565b5b60006136a58582860161366b565b92505060206136b6858286016135b6565b9150509250929050565b6000806000606084860312156136d9576136d86132a0565b5b60006136e78682870161366b565b93505060206136f88682870161366b565b9250506040613709868287016135b6565b9150509250925092565b600061371e826135f8565b9050919050565b61372e81613713565b82525050565b61373d81613595565b82525050565b600060a0820190506137586000830188613725565b6137656020830187613734565b6137726040830186613734565b61377f606083018561362a565b61378c608083018461333b565b9695505050505050565b600081519050919050565b600082825260208201905092915050565b6000819050602082019050919050565b600082825260208201905092915050565b60006137de82613365565b6137e881856137c2565b93506137f8818560208601613381565b613801816133ab565b840191505092915050565b61381581613595565b82525050565b6000606083016000830151848203600086015261383882826137d3565b915050602083015161384d602086018261380c565b506040830151613860604086018261380c565b508091505092915050565b6000613877838361381b565b905092915050565b6000602082019050919050565b600061389782613796565b6138a181856137a1565b9350836020820285016138b3856137b2565b8060005b858110156138ef57848403895281516138d0858261386b565b94506138db8361387f565b925060208a019950506001810190506138b7565b50829750879550505050505092915050565b6000602082019050818103600083015261391b818461388c565b905092915050565b6000806040838503121561393a576139396132a0565b5b600083013567ffffffffffffffff811115613958576139576132a5565b5b6139648582860161351e565b9250506020613975858286016135b6565b9150509250929050565b600060208284031215613995576139946132a0565b5b60006139a38482850161366b565b91505092915050565b60006020820190506139c16000830184613734565b92915050565b600081519050919050565b600082825260208201905092915050565b6000819050602082019050919050565b60006040830160008301518482036000860152613a1082826137d3565b9150506020830151613a25602086018261380c565b508091505092915050565b6000613a3c83836139f3565b905092915050565b6000602082019050919050565b6000613a5c826139c7565b613a6681856139d2565b935083602082028501613a78856139e3565b8060005b85811015613ab45784840389528151613a958582613a30565b9450613aa083613a44565b925060208a01995050600181019050613a7c565b50829750879550505050505092915050565b60006020820190508181036000830152613ae08184613a51565b905092915050565b613af18161332f565b8114613afc57600080fd5b50565b600081359050613b0e81613ae8565b92915050565b60008060408385031215613b2b57613b2a6132a0565b5b6000613b398582860161366b565b9250506020613b4a85828601613aff565b9150509250929050565b600067ffffffffffffffff821115613b6f57613b6e613421565b5b613b78826133ab565b9050602081019050919050565b6000613b98613b9384613b54565b613481565b905082815260208101848484011115613bb457613bb361341c565b5b613bbf8482856134cd565b509392505050565b600082601f830112613bdc57613bdb613417565b5b8135613bec848260208601613b85565b91505092915050565b60008060008060808587031215613c0f57613c0e6132a0565b5b6000613c1d8782880161366b565b9450506020613c2e8782880161366b565b9350506040613c3f878288016135b6565b925050606085013567ffffffffffffffff811115613c6057613c5f6132a5565b5b613c6c87828801613bc7565b91505092959194509250565b600080fd5b600080fd5b60008083601f840112613c9857613c97613417565b5b8235905067ffffffffffffffff811115613cb557613cb4613c78565b5b602083019150836001820283011115613cd157613cd0613c7d565b5b9250929050565b600080600060408486031215613cf157613cf06132a0565b5b600084013567ffffffffffffffff811115613d0f57613d0e6132a5565b5b613d1b8682870161351e565b935050602084013567ffffffffffffffff811115613d3c57613d3b6132a5565b5b613d4886828701613c82565b92509250509250925092565b60008060408385031215613d6b57613d6a6132a0565b5b6000613d798582860161366b565b9250506020613d8a8582860161366b565b9150509250929050565b6000606082019050613da9600083018661333b565b613db66020830185613734565b8181036040830152613dc881846133bc565b9050949350505050565b7f4e487b7100000000000000000000000000000000000000000000000000000000600052602260045260246000fd5b60006002820490506001821680613e1957607f821691505b602082108103613e2c57613e2b613dd2565b5b50919050565b600081905092915050565b6000613e4882613365565b613e528185613e32565b9350613e62818560208601613381565b80840191505092915050565b6000613e7a8284613e3d565b915081905092915050565b7f4e756d62657220706c617465206973206e6f7420666f722073616c652e000000600082015250565b6000613ebb601d83613370565b9150613ec682613e85565b602082019050919050565b60006020820190508181036000830152613eea81613eae565b9050919050565b7f5072696365206e6f74206d65742e000000000000000000000000000000000000600082015250565b6000613f27600e83613370565b9150613f3282613ef1565b602082019050919050565b60006020820190508181036000830152613f5681613f1a565b9050919050565b7f4e487b7100000000000000000000000000000000000000000000000000000000600052603260045260246000fd5b60008190508160005260206000209050919050565b60008154613fae81613e01565b613fb88186613e32565b94506001821660008114613fd35760018114613fe85761401b565b60ff198316865281151582028601935061401b565b613ff185613f8c565b60005b8381101561401357815481890152600182019150602081019050613ff4565b838801955050505b50505092915050565b60006140308284613fa1565b915081905092915050565b7f4e487b7100000000000000000000000000000000000000000000000000000000600052601160045260246000fd5b600061407582613595565b915061408083613595565b92508282039050818111156140985761409761403b565b5b92915050565b6000815490506140ad81613e01565b9050919050565b60008190508160005260206000209050919050565b60006020601f8301049050919050565b600082821b905092915050565b6000600883026141167fffffffffffffffffffffffffffffffffffffffffffffffffffffffffffffffff826140d9565b61412086836140d9565b95508019841693508086168417925050509392505050565b6000819050919050565b600061415d61415861415384613595565b614138565b613595565b9050919050565b6000819050919050565b61417783614142565b61418b61418382614164565b8484546140e6565b825550505050565b600090565b6141a0614193565b6141ab81848461416e565b505050565b5b818110156141cf576141c4600082614198565b6001810190506141b1565b5050565b601f821115614214576141e581613f8c565b6141ee846140c9565b810160208510156141fd578190505b614211614209856140c9565b8301826141b0565b50505b505050565b600082821c905092915050565b600061423760001984600802614219565b1980831691505092915050565b60006142508383614226565b9150826002028217905092915050565b81810361426e575050614346565b6142778261409e565b67ffffffffffffffff8111156142905761428f613421565b5b61429a8254613e01565b6142a58282856141d3565b6000601f8311600181146142d457600084156142c2578287015490505b6142cc8582614244565b86555061433f565b601f1984166142e2876140b4565b96506142ed86613f8c565b60005b82811015614315578489015482556001820191506001850194506020810190506142f0565b86831015614332578489015461432e601f891682614226565b8355505b6001600288020188555050505b5050505050505b565b7f4e487b7100000000000000000000000000000000000000000000000000000000600052603160045260246000fd5b600061438282613595565b91507fffffffffffffffffffffffffffffffffffffffffffffffffffffffffffffffff82036143b4576143b361403b565b5b600182019050919050565b60006143ca82613595565b91506143d583613595565b92508282026143e381613595565b915082820484148315176143fa576143f961403b565b5b5092915050565b7f4e487b7100000000000000000000000000000000000000000000000000000000600052601260045260246000fd5b600061443b82613595565b915061444683613595565b92508261445657614455614401565b5b828204905092915050565b7f4552433732313a20617070726f76616c20746f2063757272656e74206f776e6560008201527f7200000000000000000000000000000000000000000000000000000000000000602082015250565b60006144bd602183613370565b91506144c882614461565b604082019050919050565b600060208201905081810360008301526144ec816144b0565b9050919050565b7f4552433732313a20617070726f76652063616c6c6572206973206e6f7420746f60008201527f6b656e206f776e6572206f7220617070726f76656420666f7220616c6c000000602082015250565b600061454f603d83613370565b915061455a826144f3565b604082019050919050565b6000602082019050818103600083015261457e81614542565b9050919050565b7f4552433732313a2063616c6c6572206973206e6f7420746f6b656e206f776e6560008201527f72206f7220617070726f76656400000000000000000000000000000000000000602082015250565b60006145e1602d83613370565b91506145ec82614585565b604082019050919050565b60006020820190508181036000830152614610816145d4565b9050919050565b7f4e756d62657220706c61746520616c7265616479206578697374732e00000000600082015250565b600061464d601c83613370565b915061465882614617565b602082019050919050565b6000602082019050818103600083015261467c81614640565b9050919050565b7f4372656174696f6e20666565206e6f74206d65742e0000000000000000000000600082015250565b60006146b9601583613370565b91506146c482614683565b602082019050919050565b600060208201905081810360008301526146e8816146ac565b9050919050565b6146f882613365565b67ffffffffffffffff81111561471157614710613421565b5b61471b8254613e01565b6147268282856141d3565b600060209050601f8311600181146147595760008415614747578287015190505b6147518582614244565b8655506147b9565b601f19841661476786613f8c565b60005b8281101561478f5784890151825560018201915060208501945060208101905061476a565b868310156147ac57848901516147a8601f891682614226565b8355505b6001600288020188555050505b505050505050565b60006147cc82613595565b91506147d783613595565b92508282019050808211156147ef576147ee61403b565b5b92915050565b7f4f6e6c7920636f6e7472616374206f776e65722063616e2063616c6c2074686960008201527f732066756e6374696f6e2e000000000000000000000000000000000000000000602082015250565b6000614851602b83613370565b915061485c826147f5565b604082019050919050565b6000602082019050818103600083015261488081614844565b9050919050565b7f4552433732313a20696e76616c696420746f6b656e2049440000000000000000600082015250565b60006148bd601883613370565b91506148c882614887565b602082019050919050565b600060208201905081810360008301526148ec816148b0565b9050919050565b7f43616c6c6572206973206e6f74206f776e6572206e6f7220617070726f76656460008201527f2e00000000000000000000000000000000000000000000000000000000000000602082015250565b600061494f602183613370565b915061495a826148f3565b604082019050919050565b6000602082019050818103600083015261497e81614942565b9050919050565b7f4552433732313a2061646472657373207a65726f206973206e6f74206120766160008201527f6c6964206f776e65720000000000000000000000000000000000000000000000602082015250565b60006149e1602983613370565b91506149ec82614985565b604082019050919050565b60006020820190508181036000830152614a10816149d4565b9050919050565b600082905092915050565b614a2c8383614a17565b67ffffffffffffffff811115614a4557614a44613421565b5b614a4f8254613e01565b614a5a8282856141d3565b6000601f831160018114614a895760008415614a77578287013590505b614a818582614244565b865550614ae9565b601f198416614a9786613f8c565b60005b82811015614abf57848901358255600182019150602085019450602081019050614a9a565b86831015614adc5784890135614ad8601f891682614226565b8355505b6001600288020188555050505b50505050505050565b6000614afe8285613e3d565b9150614b0a8284613e3d565b91508190509392505050565b7f41756374696f6e2068617320656e6465642e0000000000000000000000000000600082015250565b6000614b4c601283613370565b9150614b5782614b16565b602082019050919050565b60006020820190508181036000830152614b7b81614b3f565b9050919050565b7f426964206d757374206265206174206c6561737420312046696e6e65792e0000600082015250565b6000614bb8601e83613370565b9150614bc382614b82565b602082019050919050565b60006020820190508181036000830152614be781614bab565b9050919050565b7f426964206d75737420626520686967686572207468616e20746865206375727260008201527f656e742068696768657374206269642e00000000000000000000000000000000602082015250565b6000614c4a603083613370565b9150614c5582614bee565b604082019050919050565b60006020820190508181036000830152614c7981614c3d565b9050919050565b7f41756374696f6e20686173206e6f7420656e646564207965742e000000000000600082015250565b6000614cb6601a83613370565b9150614cc182614c80565b602082019050919050565b60006020820190508181036000830152614ce581614ca9565b9050919050565b7f41756374696f6e2068617320616c7265616479206265656e20656e6465642e00600082015250565b6000614d22601f83613370565b9150614d2d82614cec565b602082019050919050565b60006020820190508181036000830152614d5181614d15565b9050919050565b7f4552433732313a207472616e7366657220746f206e6f6e20455243373231526560008201527f63656976657220696d706c656d656e7465720000000000000000000000000000602082015250565b6000614db4603283613370565b9150614dbf82614d58565b604082019050919050565b60006020820190508181036000830152614de381614da7565b9050919050565b7f416464726573733a20696e73756666696369656e742062616c616e6365000000600082015250565b6000614e20601d83613370565b9150614e2b82614dea565b602082019050919050565b60006020820190508181036000830152614e4f81614e13565b9050919050565b600081905092915050565b50565b6000614e71600083614e56565b9150614e7c82614e61565b600082019050919050565b6000614e9282614e64565b9150819050919050565b7f416464726573733a20756e61626c6520746f2073656e642076616c75652c207260008201527f6563697069656e74206d61792068617665207265766572746564000000000000602082015250565b6000614ef8603a83613370565b9150614f0382614e9c565b604082019050919050565b60006020820190508181036000830152614f2781614eeb565b9050919050565b7f4552433732313a207472616e736665722066726f6d20696e636f72726563742060008201527f6f776e6572000000000000000000000000000000000000000000000000000000602082015250565b6000614f8a602583613370565b9150614f9582614f2e565b604082019050919050565b60006020820190508181036000830152614fb981614f7d565b9050919050565b7f4552433732313a207472616e7366657220746f20746865207a65726f2061646460008201527f7265737300000000000000000000000000000000000000000000000000000000602082015250565b600061501c602483613370565b915061502782614fc0565b604082019050919050565b6000602082019050818103600083015261504b8161500f565b9050919050565b7f4552433732313a20617070726f766520746f2063616c6c657200000000000000600082015250565b6000615088601983613370565b915061509382615052565b602082019050919050565b600060208201905081810360008301526150b78161507b565b9050919050565b600081519050919050565b600082825260208201905092915050565b60006150e5826150be565b6150ef81856150c9565b93506150ff818560208601613381565b615108816133ab565b840191505092915050565b6000608082019050615128600083018761362a565b615135602083018661362a565b6151426040830185613734565b818103606083015261515481846150da565b905095945050505050565b60008151905061516e816132d6565b92915050565b60006020828403121561518a576151896132a0565b5b60006151988482850161515f565b91505092915050565b7f4552433732313a206d696e7420746f20746865207a65726f2061646472657373600082015250565b60006151d7602083613370565b91506151e2826151a1565b602082019050919050565b60006020820190508181036000830152615206816151ca565b9050919050565b7f4552433732313a20746f6b656e20616c7265616479206d696e74656400000000600082015250565b6000615243601c83613370565b915061524e8261520d565b602082019050919050565b6000602082019050818103600083015261527281615236565b905091905056fea2646970667358221220086e59ca58c7adea074abe0edb056b8fc93c4a20a41731f7f5ef7ec92e7ef35764736f6c63430008120033",
  "linkReferences": {},
  "deployedLinkReferences": {}
}